{
  "_format": "hh3-artifact-1",
  "contractName": "Chessxu",
  "sourceName": "contracts/Chessxu.sol",
  "abi": [
    {
      "inputs": [
        {
          "internalType": "address",
          "name": "_tokenAddress",
          "type": "address"
        }
      ],
      "stateMutability": "nonpayable",
      "type": "constructor"
    },
    {
      "inputs": [],
      "name": "AlreadyJoined",
      "type": "error"
    },
    {
      "inputs": [],
      "name": "GameNotActive",
      "type": "error"
    },
    {
      "inputs": [],
      "name": "GameNotFound",
      "type": "error"
    },
    {
      "inputs": [],
      "name": "InvalidStatus",
      "type": "error"
    },
    {
      "inputs": [],
      "name": "InvalidWager",
      "type": "error"
    },
    {
      "inputs": [],
      "name": "NotOwner",
      "type": "error"
    },
    {
      "inputs": [],
      "name": "NotPlayer",
      "type": "error"
    },
    {
      "inputs": [],
      "name": "NotWaiting",
      "type": "error"
    },
    {
      "inputs": [],
      "name": "NotYourTurn",
      "type": "error"
    },
    {
      "inputs": [],
      "name": "TransferFailed",
      "type": "error"
    },
    {
      "inputs": [
        {
          "internalType": "uint256",
          "name": "wager",
          "type": "uint256"
        },
        {
          "internalType": "bool",
          "name": "isNative",
          "type": "bool"
        }
      ],
      "name": "createGame",
      "outputs": [
        {
          "internalType": "uint256",
          "name": "",
          "type": "uint256"
        }
      ],
      "stateMutability": "payable",
      "type": "function"
    },
    {
      "inputs": [
        {
          "internalType": "uint256",
          "name": "",
          "type": "uint256"
        }
      ],
      "name": "games",
      "outputs": [
        {
          "internalType": "address",
          "name": "playerW",
          "type": "address"
        },
        {
          "internalType": "address",
          "name": "playerB",
          "type": "address"
        },
        {
          "internalType": "uint256",
          "name": "wager",
          "type": "uint256"
        },
        {
          "internalType": "bool",
          "name": "isNative",
          "type": "bool"
        },
        {
          "internalType": "string",
          "name": "boardState",
          "type": "string"
        },
        {
          "internalType": "string",
          "name": "turn",
          "type": "string"
        },
        {
          "internalType": "uint8",
          "name": "status",
          "type": "uint8"
        }
      ],
      "stateMutability": "view",
      "type": "function"
    },
    {
      "inputs": [
        {
          "internalType": "uint256",
          "name": "gameId",
          "type": "uint256"
        }
      ],
      "name": "getGame",
      "outputs": [
        {
          "components": [
            {
              "internalType": "address",
              "name": "playerW",
              "type": "address"
            },
            {
              "internalType": "address",
              "name": "playerB",
              "type": "address"
            },
            {
              "internalType": "uint256",
              "name": "wager",
              "type": "uint256"
            },
            {
              "internalType": "bool",
              "name": "isNative",
              "type": "bool"
            },
            {
              "internalType": "string",
              "name": "boardState",
              "type": "string"
            },
            {
              "internalType": "string",
              "name": "turn",
              "type": "string"
            },
            {
              "internalType": "uint8",
              "name": "status",
              "type": "uint8"
            }
          ],
          "internalType": "struct Chessxu.Game",
          "name": "",
          "type": "tuple"
        }
      ],
      "stateMutability": "view",
      "type": "function"
    },
    {
      "inputs": [],
      "name": "getLastGameId",
      "outputs": [
        {
          "internalType": "uint256",
          "name": "",
          "type": "uint256"
        }
      ],
      "stateMutability": "view",
      "type": "function"
    },
    {
      "inputs": [
        {
          "internalType": "uint256",
          "name": "gameId",
          "type": "uint256"
        }
      ],
      "name": "joinGame",
      "outputs": [],
      "stateMutability": "payable",
      "type": "function"
    },
    {
      "inputs": [],
      "name": "nextGameId",
      "outputs": [
        {
          "internalType": "uint256",
          "name": "",
          "type": "uint256"
        }
      ],
      "stateMutability": "view",
      "type": "function"
    },
    {
      "inputs": [],
      "name": "owner",
      "outputs": [
        {
          "internalType": "address",
          "name": "",
          "type": "address"
        }
      ],
      "stateMutability": "view",
      "type": "function"
    },
    {
      "inputs": [
        {
          "internalType": "uint256",
          "name": "gameId",
          "type": "uint256"
        }
      ],
      "name": "resign",
      "outputs": [],
      "stateMutability": "nonpayable",
      "type": "function"
    },
    {
      "inputs": [
        {
          "internalType": "uint256",
          "name": "gameId",
          "type": "uint256"
        },
        {
          "internalType": "uint8",
          "name": "newStatus",
          "type": "uint8"
        }
      ],
      "name": "resolveGame",
      "outputs": [],
      "stateMutability": "nonpayable",
      "type": "function"
    },
    {
      "inputs": [],
      "name": "stackchessToken",
      "outputs": [
        {
          "internalType": "contract IERC20",
          "name": "",
          "type": "address"
        }
      ],
      "stateMutability": "view",
      "type": "function"
    },
    {
      "inputs": [
        {
          "internalType": "uint256",
          "name": "gameId",
          "type": "uint256"
        },
        {
          "internalType": "string",
          "name": "",
          "type": "string"
        },
        {
          "internalType": "string",
          "name": "newBoardState",
          "type": "string"
        }
      ],
      "name": "submitMove",
      "outputs": [],
      "stateMutability": "nonpayable",
      "type": "function"
    }
  ],
  "bytecode": "0x60806040526001805534801562000014575f80fd5b5060405162002d5838038062002d5883398181016040528101906200003a91906200015a565b335f806101000a81548173ffffffffffffffffffffffffffffffffffffffff021916908373ffffffffffffffffffffffffffffffffffffffff1602179055505f73ffffffffffffffffffffffffffffffffffffffff168173ffffffffffffffffffffffffffffffffffffffff1614620000ee578060035f6101000a81548173ffffffffffffffffffffffffffffffffffffffff021916908373ffffffffffffffffffffffffffffffffffffffff1602179055505b506200018a565b5f80fd5b5f73ffffffffffffffffffffffffffffffffffffffff82169050919050565b5f6200012482620000f9565b9050919050565b620001368162000118565b811462000141575f80fd5b50565b5f8151905062000154816200012b565b92915050565b5f60208284031215620001725762000171620000f5565b5b5f620001818482850162000144565b91505092915050565b612bc080620001985f395ff3fe60806040526004361061009b575f3560e01c80638da5cb5b116100635780638da5cb5b1461018b578063a2f77bcc146101b5578063a35b6ec7146101f1578063b135bbb01461021b578063e04f1d8114610245578063efaa55a01461026d5761009b565b806308d9801c1461009f578063117a5b90146100c75780631b06d588146101095780636bfca566146101335780637a257b1a14610163575b5f80fd5b3480156100aa575f80fd5b506100c560048036038101906100c09190611fcf565b610289565b005b3480156100d2575f80fd5b506100ed60048036038101906100e89190611fcf565b61080c565b6040516101009796959493929190612107565b60405180910390f35b348015610114575f80fd5b5061011d6109ac565b60405161012a91906121dd565b60405180910390f35b61014d60048036038101906101489190612220565b6109d1565b60405161015a919061225e565b60405180910390f35b34801561016e575f80fd5b50610189600480360381019061018491906122a1565b610d23565b005b348015610196575f80fd5b5061019f611666565b6040516101ac91906122df565b60405180910390f35b3480156101c0575f80fd5b506101db60048036038101906101d69190611fcf565b611689565b6040516101e8919061241c565b60405180910390f35b3480156101fc575f80fd5b506102056118bd565b604051610212919061225e565b60405180910390f35b348015610226575f80fd5b5061022f6118d1565b60405161023c919061225e565b60405180910390f35b348015610250575f80fd5b5061026b6004803603810190610266919061249d565b6118d7565b005b61028760048036038101906102829190611fcf565b611bd1565b005b5f60025f8381526020019081526020015f2090505f73ffffffffffffffffffffffffffffffffffffffff16815f015f9054906101000a900473ffffffffffffffffffffffffffffffffffffffff1673ffffffffffffffffffffffffffffffffffffffff1603610324576040517f26cf189c00000000000000000000000000000000000000000000000000000000815260040160405180910390fd5b6001816006015f9054906101000a900460ff1660ff1614610370576040517ea3097100000000000000000000000000000000000000000000000000000000815260040160405180910390fd5b805f015f9054906101000a900473ffffffffffffffffffffffffffffffffffffffff1673ffffffffffffffffffffffffffffffffffffffff163373ffffffffffffffffffffffffffffffffffffffff161415801561041d5750806001015f9054906101000a900473ffffffffffffffffffffffffffffffffffffffff1673ffffffffffffffffffffffffffffffffffffffff163373ffffffffffffffffffffffffffffffffffffffff1614155b15610454576040517fa717dfcc00000000000000000000000000000000000000000000000000000000815260040160405180910390fd5b5f60028260020154610466919061255b565b9050815f015f9054906101000a900473ffffffffffffffffffffffffffffffffffffffff1673ffffffffffffffffffffffffffffffffffffffff163373ffffffffffffffffffffffffffffffffffffffff1603610665576003826006015f6101000a81548160ff021916908360ff1602179055505f81111561066057816003015f9054906101000a900460ff161561056457816001015f9054906101000a900473ffffffffffffffffffffffffffffffffffffffff1673ffffffffffffffffffffffffffffffffffffffff166108fc8290811502906040515f60405180830381858888f1935050505015801561055e573d5f803e3d5ffd5b5061065f565b5f60035f9054906101000a900473ffffffffffffffffffffffffffffffffffffffff1673ffffffffffffffffffffffffffffffffffffffff1663a9059cbb846001015f9054906101000a900473ffffffffffffffffffffffffffffffffffffffff16846040518363ffffffff1660e01b81526004016105e492919061259c565b6020604051808303815f875af1158015610600573d5f803e3d5ffd5b505050506040513d601f19601f8201168201806040525081019061062491906125d7565b90508061065d576040517f90b8ec1800000000000000000000000000000000000000000000000000000000815260040160405180910390fd5b505b5b610807565b6002826006015f6101000a81548160ff021916908360ff1602179055505f81111561080657816003015f9054906101000a900460ff161561070b57815f015f9054906101000a900473ffffffffffffffffffffffffffffffffffffffff1673ffffffffffffffffffffffffffffffffffffffff166108fc8290811502906040515f60405180830381858888f19350505050158015610705573d5f803e3d5ffd5b50610805565b5f60035f9054906101000a900473ffffffffffffffffffffffffffffffffffffffff1673ffffffffffffffffffffffffffffffffffffffff1663a9059cbb845f015f9054906101000a900473ffffffffffffffffffffffffffffffffffffffff16846040518363ffffffff1660e01b815260040161078a92919061259c565b6020604051808303815f875af11580156107a6573d5f803e3d5ffd5b505050506040513d601f19601f820116820180604052508101906107ca91906125d7565b905080610803576040517f90b8ec1800000000000000000000000000000000000000000000000000000000815260040160405180910390fd5b505b5b5b505050565b6002602052805f5260405f205f91509050805f015f9054906101000a900473ffffffffffffffffffffffffffffffffffffffff1690806001015f9054906101000a900473ffffffffffffffffffffffffffffffffffffffff1690806002015490806003015f9054906101000a900460ff169080600401805461088d9061262f565b80601f01602080910402602001604051908101604052809291908181526020018280546108b99061262f565b80156109045780601f106108db57610100808354040283529160200191610904565b820191905f5260205f20905b8154815290600101906020018083116108e757829003601f168201915b5050505050908060050180546109199061262f565b80601f01602080910402602001604051908101604052809291908181526020018280546109459061262f565b80156109905780601f1061096757610100808354040283529160200191610990565b820191905f5260205f20905b81548152906001019060200180831161097357829003601f168201915b505050505090806006015f9054906101000a900460ff16905087565b60035f9054906101000a900473ffffffffffffffffffffffffffffffffffffffff1681565b5f8060015490508215610a25575f841115610a2057833414610a1f576040517f2f763a0100000000000000000000000000000000000000000000000000000000815260040160405180910390fd5b5b610b42565b5f341115610a5f576040517f2f763a0100000000000000000000000000000000000000000000000000000000815260040160405180910390fd5b5f841115610b41575f60035f9054906101000a900473ffffffffffffffffffffffffffffffffffffffff1673ffffffffffffffffffffffffffffffffffffffff166323b872dd3330886040518463ffffffff1660e01b8152600401610ac69392919061265f565b6020604051808303815f875af1158015610ae2573d5f803e3d5ffd5b505050506040513d601f19601f82011682018060405250810190610b0691906125d7565b905080610b3f576040517f90b8ec1800000000000000000000000000000000000000000000000000000000815260040160405180910390fd5b505b5b6040518060e001604052803373ffffffffffffffffffffffffffffffffffffffff1681526020015f73ffffffffffffffffffffffffffffffffffffffff16815260200185815260200184151581526020016040518060600160405280602b8152602001612b60602b913981526020016040518060400160405280600181526020017f770000000000000000000000000000000000000000000000000000000000000081525081526020015f60ff1681525060025f8381526020019081526020015f205f820151815f015f6101000a81548173ffffffffffffffffffffffffffffffffffffffff021916908373ffffffffffffffffffffffffffffffffffffffff1602179055506020820151816001015f6101000a81548173ffffffffffffffffffffffffffffffffffffffff021916908373ffffffffffffffffffffffffffffffffffffffff160217905550604082015181600201556060820151816003015f6101000a81548160ff0219169083151502179055506080820151816004019081610ccc9190612855565b5060a0820151816005019081610ce29190612855565b5060c0820151816006015f6101000a81548160ff021916908360ff160217905550905050600181610d139190612924565b6001819055508091505092915050565b5f8054906101000a900473ffffffffffffffffffffffffffffffffffffffff1673ffffffffffffffffffffffffffffffffffffffff163373ffffffffffffffffffffffffffffffffffffffff1614610da7576040517f30cd747100000000000000000000000000000000000000000000000000000000815260040160405180910390fd5b5f60025f8481526020019081526020015f2090505f73ffffffffffffffffffffffffffffffffffffffff16815f015f9054906101000a900473ffffffffffffffffffffffffffffffffffffffff1673ffffffffffffffffffffffffffffffffffffffff1603610e42576040517f26cf189c00000000000000000000000000000000000000000000000000000000815260040160405180910390fd5b5f816006015f9054906101000a900460ff1660ff1614158015610e7957506001816006015f9054906101000a900460ff1660ff1614155b15610eaf576040517ea3097100000000000000000000000000000000000000000000000000000000815260040160405180910390fd5b60028260ff161080610ec4575060058260ff16115b15610efb576040517ff525e32000000000000000000000000000000000000000000000000000000000815260040160405180910390fd5b5f60028260020154610f0d919061255b565b90505f8260020154905060028460ff16036110b457826003015f9054906101000a900460ff1615610fac575f821115610fa757825f015f9054906101000a900473ffffffffffffffffffffffffffffffffffffffff1673ffffffffffffffffffffffffffffffffffffffff166108fc8390811502906040515f60405180830381858888f19350505050158015610fa5573d5f803e3d5ffd5b505b6110af565b5f8211156110ae575f60035f9054906101000a900473ffffffffffffffffffffffffffffffffffffffff1673ffffffffffffffffffffffffffffffffffffffff1663a9059cbb855f015f9054906101000a900473ffffffffffffffffffffffffffffffffffffffff16856040518363ffffffff1660e01b815260040161103392919061259c565b6020604051808303815f875af115801561104f573d5f803e3d5ffd5b505050506040513d601f19601f8201168201806040525081019061107391906125d7565b9050806110ac576040517f90b8ec1800000000000000000000000000000000000000000000000000000000815260040160405180910390fd5b505b5b611643565b60038460ff16036112a5575f73ffffffffffffffffffffffffffffffffffffffff16836001015f9054906101000a900473ffffffffffffffffffffffffffffffffffffffff1673ffffffffffffffffffffffffffffffffffffffff161415801561111d57505f82115b156112a057826003015f9054906101000a900460ff16156111a457826001015f9054906101000a900473ffffffffffffffffffffffffffffffffffffffff1673ffffffffffffffffffffffffffffffffffffffff166108fc8390811502906040515f60405180830381858888f1935050505015801561119e573d5f803e3d5ffd5b5061129f565b5f60035f9054906101000a900473ffffffffffffffffffffffffffffffffffffffff1673ffffffffffffffffffffffffffffffffffffffff1663a9059cbb856001015f9054906101000a900473ffffffffffffffffffffffffffffffffffffffff16856040518363ffffffff1660e01b815260040161122492919061259c565b6020604051808303815f875af1158015611240573d5f803e3d5ffd5b505050506040513d601f19601f8201168201806040525081019061126491906125d7565b90508061129d576040517f90b8ec1800000000000000000000000000000000000000000000000000000000815260040160405180910390fd5b505b5b611642565b826003015f9054906101000a900460ff16156113ed575f8111156113e857825f015f9054906101000a900473ffffffffffffffffffffffffffffffffffffffff1673ffffffffffffffffffffffffffffffffffffffff166108fc8290811502906040515f60405180830381858888f19350505050158015611328573d5f803e3d5ffd5b505f73ffffffffffffffffffffffffffffffffffffffff16836001015f9054906101000a900473ffffffffffffffffffffffffffffffffffffffff1673ffffffffffffffffffffffffffffffffffffffff16146113e757826001015f9054906101000a900473ffffffffffffffffffffffffffffffffffffffff1673ffffffffffffffffffffffffffffffffffffffff166108fc8290811502906040515f60405180830381858888f193505050501580156113e5573d5f803e3d5ffd5b505b5b611641565b5f811115611640575f60035f9054906101000a900473ffffffffffffffffffffffffffffffffffffffff1673ffffffffffffffffffffffffffffffffffffffff1663a9059cbb855f015f9054906101000a900473ffffffffffffffffffffffffffffffffffffffff16846040518363ffffffff1660e01b815260040161147492919061259c565b6020604051808303815f875af1158015611490573d5f803e3d5ffd5b505050506040513d601f19601f820116820180604052508101906114b491906125d7565b9050806114ed576040517f90b8ec1800000000000000000000000000000000000000000000000000000000815260040160405180910390fd5b5f73ffffffffffffffffffffffffffffffffffffffff16846001015f9054906101000a900473ffffffffffffffffffffffffffffffffffffffff1673ffffffffffffffffffffffffffffffffffffffff161461163e575f60035f9054906101000a900473ffffffffffffffffffffffffffffffffffffffff1673ffffffffffffffffffffffffffffffffffffffff1663a9059cbb866001015f9054906101000a900473ffffffffffffffffffffffffffffffffffffffff16856040518363ffffffff1660e01b81526004016115c392919061259c565b6020604051808303815f875af11580156115df573d5f803e3d5ffd5b505050506040513d601f19601f8201168201806040525081019061160391906125d7565b90508061163c576040517f90b8ec1800000000000000000000000000000000000000000000000000000000815260040160405180910390fd5b505b505b5b5b5b83836006015f6101000a81548160ff021916908360ff1602179055505050505050565b5f8054906101000a900473ffffffffffffffffffffffffffffffffffffffff1681565b611691611f2b565b60025f8381526020019081526020015f206040518060e00160405290815f82015f9054906101000a900473ffffffffffffffffffffffffffffffffffffffff1673ffffffffffffffffffffffffffffffffffffffff1673ffffffffffffffffffffffffffffffffffffffff168152602001600182015f9054906101000a900473ffffffffffffffffffffffffffffffffffffffff1673ffffffffffffffffffffffffffffffffffffffff1673ffffffffffffffffffffffffffffffffffffffff16815260200160028201548152602001600382015f9054906101000a900460ff1615151515815260200160048201805461178a9061262f565b80601f01602080910402602001604051908101604052809291908181526020018280546117b69061262f565b80156118015780601f106117d857610100808354040283529160200191611801565b820191905f5260205f20905b8154815290600101906020018083116117e457829003601f168201915b5050505050815260200160058201805461181a9061262f565b80601f01602080910402602001604051908101604052809291908181526020018280546118469061262f565b80156118915780601f1061186857610100808354040283529160200191611891565b820191905f5260205f20905b81548152906001019060200180831161187457829003601f168201915b50505050508152602001600682015f9054906101000a900460ff1660ff1660ff16815250509050919050565b5f600180546118cc9190612957565b905090565b60015481565b5f60025f8781526020019081526020015f2090505f73ffffffffffffffffffffffffffffffffffffffff16815f015f9054906101000a900473ffffffffffffffffffffffffffffffffffffffff1673ffffffffffffffffffffffffffffffffffffffff1603611972576040517f26cf189c00000000000000000000000000000000000000000000000000000000815260040160405180910390fd5b6001816006015f9054906101000a900460ff1660ff16146119be576040517ea3097100000000000000000000000000000000000000000000000000000000815260040160405180910390fd5b6040516020016119cd906129de565b60405160208183030381529060405280519060200120816005016040516020016119f79190612a72565b6040516020818303038152906040528051906020012003611ae557805f015f9054906101000a900473ffffffffffffffffffffffffffffffffffffffff1673ffffffffffffffffffffffffffffffffffffffff163373ffffffffffffffffffffffffffffffffffffffff1614611a99576040517fe60c8f5800000000000000000000000000000000000000000000000000000000815260040160405180910390fd5b6040518060400160405280600181526020017f6200000000000000000000000000000000000000000000000000000000000000815250816005019081611adf9190612855565b50611bb5565b806001015f9054906101000a900473ffffffffffffffffffffffffffffffffffffffff1673ffffffffffffffffffffffffffffffffffffffff163373ffffffffffffffffffffffffffffffffffffffff1614611b6d576040517fe60c8f5800000000000000000000000000000000000000000000000000000000815260040160405180910390fd5b6040518060400160405280600181526020017f7700000000000000000000000000000000000000000000000000000000000000815250816005019081611bb39190612855565b505b8282826004019182611bc8929190612a92565b50505050505050565b5f60025f8381526020019081526020015f2090505f73ffffffffffffffffffffffffffffffffffffffff16815f015f9054906101000a900473ffffffffffffffffffffffffffffffffffffffff1673ffffffffffffffffffffffffffffffffffffffff1603611c6c576040517f26cf189c00000000000000000000000000000000000000000000000000000000815260040160405180910390fd5b5f816006015f9054906101000a900460ff1660ff1614611cb8576040517f41ce644700000000000000000000000000000000000000000000000000000000815260040160405180910390fd5b805f015f9054906101000a900473ffffffffffffffffffffffffffffffffffffffff1673ffffffffffffffffffffffffffffffffffffffff163373ffffffffffffffffffffffffffffffffffffffff1603611d3e576040517e3b268200000000000000000000000000000000000000000000000000000000815260040160405180910390fd5b806003015f9054906101000a900460ff1615611da3575f81600201541115611d9e5780600201543414611d9d576040517f2f763a0100000000000000000000000000000000000000000000000000000000815260040160405180910390fd5b5b611ec8565b5f341115611ddd576040517f2f763a0100000000000000000000000000000000000000000000000000000000815260040160405180910390fd5b5f81600201541115611ec7575f60035f9054906101000a900473ffffffffffffffffffffffffffffffffffffffff1673ffffffffffffffffffffffffffffffffffffffff166323b872dd333085600201546040518463ffffffff1660e01b8152600401611e4c9392919061265f565b6020604051808303815f875af1158015611e68573d5f803e3d5ffd5b505050506040513d601f19601f82011682018060405250810190611e8c91906125d7565b905080611ec5576040517f90b8ec1800000000000000000000000000000000000000000000000000000000815260040160405180910390fd5b505b5b33816001015f6101000a81548173ffffffffffffffffffffffffffffffffffffffff021916908373ffffffffffffffffffffffffffffffffffffffff1602179055506001816006015f6101000a81548160ff021916908360ff1602179055505050565b6040518060e001604052805f73ffffffffffffffffffffffffffffffffffffffff1681526020015f73ffffffffffffffffffffffffffffffffffffffff1681526020015f81526020015f1515815260200160608152602001606081526020015f60ff1681525090565b5f80fd5b5f80fd5b5f819050919050565b611fae81611f9c565b8114611fb8575f80fd5b50565b5f81359050611fc981611fa5565b92915050565b5f60208284031215611fe457611fe3611f94565b5b5f611ff184828501611fbb565b91505092915050565b5f73ffffffffffffffffffffffffffffffffffffffff82169050919050565b5f61202382611ffa565b9050919050565b61203381612019565b82525050565b61204281611f9c565b82525050565b5f8115159050919050565b61205c81612048565b82525050565b5f81519050919050565b5f82825260208201905092915050565b5f5b8381101561209957808201518184015260208101905061207e565b5f8484015250505050565b5f601f19601f8301169050919050565b5f6120be82612062565b6120c8818561206c565b93506120d881856020860161207c565b6120e1816120a4565b840191505092915050565b5f60ff82169050919050565b612101816120ec565b82525050565b5f60e08201905061211a5f83018a61202a565b612127602083018961202a565b6121346040830188612039565b6121416060830187612053565b818103608083015261215381866120b4565b905081810360a083015261216781856120b4565b905061217660c08301846120f8565b98975050505050505050565b5f819050919050565b5f6121a56121a061219b84611ffa565b612182565b611ffa565b9050919050565b5f6121b68261218b565b9050919050565b5f6121c7826121ac565b9050919050565b6121d7816121bd565b82525050565b5f6020820190506121f05f8301846121ce565b92915050565b6121ff81612048565b8114612209575f80fd5b50565b5f8135905061221a816121f6565b92915050565b5f806040838503121561223657612235611f94565b5b5f61224385828601611fbb565b92505060206122548582860161220c565b9150509250929050565b5f6020820190506122715f830184612039565b92915050565b612280816120ec565b811461228a575f80fd5b50565b5f8135905061229b81612277565b92915050565b5f80604083850312156122b7576122b6611f94565b5b5f6122c485828601611fbb565b92505060206122d58582860161228d565b9150509250929050565b5f6020820190506122f25f83018461202a565b92915050565b61230181612019565b82525050565b61231081611f9c565b82525050565b61231f81612048565b82525050565b5f82825260208201905092915050565b5f61233f82612062565b6123498185612325565b935061235981856020860161207c565b612362816120a4565b840191505092915050565b612376816120ec565b82525050565b5f60e083015f8301516123915f8601826122f8565b5060208301516123a460208601826122f8565b5060408301516123b76040860182612307565b5060608301516123ca6060860182612316565b50608083015184820360808601526123e28282612335565b91505060a083015184820360a08601526123fc8282612335565b91505060c083015161241160c086018261236d565b508091505092915050565b5f6020820190508181035f830152612434818461237c565b905092915050565b5f80fd5b5f80fd5b5f80fd5b5f8083601f84011261245d5761245c61243c565b5b8235905067ffffffffffffffff81111561247a57612479612440565b5b60208301915083600182028301111561249657612495612444565b5b9250929050565b5f805f805f606086880312156124b6576124b5611f94565b5b5f6124c388828901611fbb565b955050602086013567ffffffffffffffff8111156124e4576124e3611f98565b5b6124f088828901612448565b9450945050604086013567ffffffffffffffff81111561251357612512611f98565b5b61251f88828901612448565b92509250509295509295909350565b7f4e487b71000000000000000000000000000000000000000000000000000000005f52601160045260245ffd5b5f61256582611f9c565b915061257083611f9c565b925082820261257e81611f9c565b915082820484148315176125955761259461252e565b5b5092915050565b5f6040820190506125af5f83018561202a565b6125bc6020830184612039565b9392505050565b5f815190506125d1816121f6565b92915050565b5f602082840312156125ec576125eb611f94565b5b5f6125f9848285016125c3565b91505092915050565b7f4e487b71000000000000000000000000000000000000000000000000000000005f52602260045260245ffd5b5f600282049050600182168061264657607f821691505b60208210810361265957612658612602565b5b50919050565b5f6060820190506126725f83018661202a565b61267f602083018561202a565b61268c6040830184612039565b949350505050565b7f4e487b71000000000000000000000000000000000000000000000000000000005f52604160045260245ffd5b5f819050815f5260205f209050919050565b5f6020601f8301049050919050565b5f82821b905092915050565b5f6008830261271d7fffffffffffffffffffffffffffffffffffffffffffffffffffffffffffffffff826126e2565b61272786836126e2565b95508019841693508086168417925050509392505050565b5f61275961275461274f84611f9c565b612182565b611f9c565b9050919050565b5f819050919050565b6127728361273f565b61278661277e82612760565b8484546126ee565b825550505050565b5f90565b61279a61278e565b6127a5818484612769565b505050565b5b818110156127c8576127bd5f82612792565b6001810190506127ab565b5050565b601f82111561280d576127de816126c1565b6127e7846126d3565b810160208510156127f6578190505b61280a612802856126d3565b8301826127aa565b50505b505050565b5f82821c905092915050565b5f61282d5f1984600802612812565b1980831691505092915050565b5f612845838361281e565b9150826002028217905092915050565b61285e82612062565b67ffffffffffffffff81111561287757612876612694565b5b612881825461262f565b61288c8282856127cc565b5f60209050601f8311600181146128bd575f84156128ab578287015190505b6128b5858261283a565b86555061291c565b601f1984166128cb866126c1565b5f5b828110156128f2578489015182556001820191506020850194506020810190506128cd565b8683101561290f578489015161290b601f89168261281e565b8355505b6001600288020188555050505b505050505050565b5f61292e82611f9c565b915061293983611f9c565b92508282019050808211156129515761295061252e565b5b92915050565b5f61296182611f9c565b915061296c83611f9c565b92508282039050818111156129845761298361252e565b5b92915050565b5f81905092915050565b7f77000000000000000000000000000000000000000000000000000000000000005f82015250565b5f6129c860018361298a565b91506129d382612994565b600182019050919050565b5f6129e8826129bc565b9150819050919050565b5f81546129fe8161262f565b612a08818661298a565b9450600182165f8114612a225760018114612a3757612a69565b60ff1983168652811515820286019350612a69565b612a40856126c1565b5f5b83811015612a6157815481890152600182019150602081019050612a42565b838801955050505b50505092915050565b5f612a7d82846129f2565b915081905092915050565b5f82905092915050565b612a9c8383612a88565b67ffffffffffffffff811115612ab557612ab4612694565b5b612abf825461262f565b612aca8282856127cc565b5f601f831160018114612af7575f8415612ae5578287013590505b612aef858261283a565b865550612b56565b601f198416612b05866126c1565b5f5b82811015612b2c57848901358255600182019150602085019450602081019050612b07565b86831015612b495784890135612b45601f89168261281e565b8355505b6001600288020188555050505b5050505050505056fe726e62716b626e722f70707070707070702f382f382f382f382f50505050505050502f524e42514b424e52a26469706673582212202f4829b9df5ecfccc7ec2d9e70968db348914bcf7ac36b140e4a106590b48cc564736f6c63430008180033",
  "linkReferences": {},
  "deployedLinkReferences": {},
  "immutableReferences": {},
  "inputSourceName": "project/contracts/Chessxu.sol",
  "buildInfoId": "solc-0_8_24-bc33e7a51383b0c6c3fa67a19b68d86d5c9ce221"
}